{
  "contractName": "GenCertificate",
  "abi": [
    {
      "inputs": [],
      "payable": false,
      "stateMutability": "nonpayable",
      "type": "constructor"
    },
    {
      "anonymous": false,
      "inputs": [
        {
          "indexed": true,
          "name": "_creater",
          "type": "address"
        },
        {
          "indexed": false,
          "name": "_name",
          "type": "string"
        },
        {
          "indexed": false,
          "name": "_cod",
          "type": "bytes32"
        },
        {
          "indexed": false,
          "name": "_degree",
          "type": "string"
        },
        {
          "indexed": false,
          "name": "_cel",
          "type": "uint256"
        },
        {
          "indexed": false,
          "name": "_addressHome",
          "type": "string"
        },
        {
          "indexed": false,
          "name": "_codeStudent",
          "type": "uint256"
        }
      ],
      "name": "Create",
      "type": "event"
    },
    {
      "anonymous": false,
      "inputs": [
        {
          "indexed": true,
          "name": "_creater",
          "type": "address"
        },
        {
          "indexed": false,
          "name": "_cod",
          "type": "bytes32"
        },
        {
          "indexed": false,
          "name": "_approvedSemester",
          "type": "uint256"
        },
        {
          "indexed": false,
          "name": "_approvedPrepractica",
          "type": "bool"
        }
      ],
      "name": "Update",
      "type": "event"
    },
    {
      "anonymous": false,
      "inputs": [
        {
          "indexed": true,
          "name": "_creater",
          "type": "address"
        },
        {
          "indexed": false,
          "name": "_day",
          "type": "uint256"
        },
        {
          "indexed": false,
          "name": "_month",
          "type": "uint256"
        },
        {
          "indexed": false,
          "name": "_cod",
          "type": "bytes32"
        }
      ],
      "name": "Acta",
      "type": "event"
    },
    {
      "constant": false,
      "inputs": [
        {
          "name": "_name",
          "type": "string"
        },
        {
          "name": "_degree",
          "type": "string"
        },
        {
          "name": "_cel",
          "type": "uint256"
        },
        {
          "name": "_addressHome",
          "type": "string"
        },
        {
          "name": "_codeStudent",
          "type": "uint256"
        }
      ],
      "name": "matriculate",
      "outputs": [
        {
          "name": "",
          "type": "bytes32"
        }
      ],
      "payable": false,
      "stateMutability": "nonpayable",
      "type": "function"
    },
    {
      "constant": false,
      "inputs": [
        {
          "name": "cod",
          "type": "bytes32"
        },
        {
          "name": "approvedSemester",
          "type": "uint256"
        },
        {
          "name": "approvedPrepractica",
          "type": "bool"
        }
      ],
      "name": "genBlock",
      "outputs": [
        {
          "name": "",
          "type": "bool"
        }
      ],
      "payable": false,
      "stateMutability": "nonpayable",
      "type": "function"
    },
    {
      "constant": true,
      "inputs": [
        {
          "name": "cod",
          "type": "bytes32"
        }
      ],
      "name": "getBlock",
      "outputs": [
        {
          "name": "",
          "type": "uint256"
        },
        {
          "name": "",
          "type": "uint256"
        },
        {
          "name": "",
          "type": "bool"
        },
        {
          "name": "",
          "type": "string"
        },
        {
          "name": "",
          "type": "bool"
        },
        {
          "name": "",
          "type": "uint256"
        },
        {
          "name": "",
          "type": "bytes32"
        }
      ],
      "payable": false,
      "stateMutability": "view",
      "type": "function"
    },
    {
      "constant": false,
      "inputs": [
        {
          "name": "_codeStudent",
          "type": "uint256"
        },
        {
          "name": "day",
          "type": "uint256"
        },
        {
          "name": "month",
          "type": "uint256"
        },
        {
          "name": "cod",
          "type": "bytes32"
        }
      ],
      "name": "genActa",
      "outputs": [
        {
          "name": "",
          "type": "bytes32"
        },
        {
          "name": "",
          "type": "string"
        }
      ],
      "payable": false,
      "stateMutability": "nonpayable",
      "type": "function"
    },
    {
      "constant": true,
      "inputs": [
        {
          "name": "_hashCode",
          "type": "bytes32"
        }
      ],
      "name": "getCertificate",
      "outputs": [
        {
          "name": "_name",
          "type": "string"
        },
        {
          "name": "_ID",
          "type": "uint256"
        },
        {
          "name": "_degree",
          "type": "string"
        },
        {
          "name": "_date",
          "type": "string"
        },
        {
          "name": "_university",
          "type": "string"
        },
        {
          "name": "_city",
          "type": "string"
        },
        {
          "name": "_state",
          "type": "string"
        }
      ],
      "payable": false,
      "stateMutability": "view",
      "type": "function"
    },
    {
      "constant": true,
      "inputs": [
        {
          "name": "_hashCode",
          "type": "bytes32"
        }
      ],
      "name": "getCertificateBlock",
      "outputs": [
        {
          "name": "blockNumber",
          "type": "uint256"
        },
        {
          "name": "__hashCode",
          "type": "bytes32"
        }
      ],
      "payable": false,
      "stateMutability": "view",
      "type": "function"
    }
  ],
  "bytecode": "0x60806040523480156200001157600080fd5b5060a4600060405180807f496e67656e696572c3ad612064652073697374656d6173000000000000000000815250601701905090815260200160405180910390208190555060ae600060405180807f496e67656e696572c3ad61206d6563c3a16e6963610000000000000000000000815250601501905090815260200160405180910390208190555060a0600060405180807f46696e616e7a617300000000000000000000000000000000000000000000000081525060080190509081526020016040518091039020819055506000600460080160006101000a81548160ff0219169083151502179055506000600460080160016101000a81548160ff0219169083151502179055506000601160070160006101000a81548160ff02191690831515021790555060006004600a0160006101000a81548160ff0219169083151502179055506040805190810160405280600881526020017f4e6f2076697374610000000000000000000000000000000000000000000000008152506004600b019080519060200190620001a6929190620001ad565b506200025c565b828054600181600116156101000203166002900490600052602060002090601f016020900481019282601f10620001f057805160ff191683800117855562000221565b8280016001018555821562000221579182015b828111156200022057825182559160200191906001019062000203565b5b50905062000230919062000234565b5090565b6200025991905b80821115620002555760008160009055506001016200023b565b5090565b90565b612e85806200026c6000396000f300608060405260043610610078576000357c0100000000000000000000000000000000000000000000000000000000900463ffffffff16806322f310711461007d5780632d40d1ed146101545780633c18be6414610279578063664a4a05146102cd5780636da7f478146103b1578063f333fe0814610410575b600080fd5b34801561008957600080fd5b506100ca60048036038101908080359060200190929190803590602001909291908035906020019092919080356000191690602001909291905050506106dd565b60405180836000191660001916815260200180602001828103825283818151815260200191508051906020019080838360005b838110156101185780820151818401526020810190506100fd565b50505050905090810190601f1680156101455780820380516001836020036101000a031916815260200191505b50935050505060405180910390f35b34801561016057600080fd5b5061025b600480360381019080803590602001908201803590602001908080601f0160208091040260200160405190810160405280939291908181526020018383808284378201915050505050509192919290803590602001908201803590602001908080601f016020809104026020016040519081016040528093929190818152602001838380828437820191505050505050919291929080359060200190929190803590602001908201803590602001908080601f016020809104026020016040519081016040528093929190818152602001838380828437820191505050505050919291929080359060200190929190505050610dab565b60405180826000191660001916815260200191505060405180910390f35b34801561028557600080fd5b506102a86004803603810190808035600019169060200190929190505050611311565b6040518083815260200182600019166000191681526020019250505060405180910390f35b3480156102d957600080fd5b506102fc60048036038101908080356000191690602001909291905050506113b3565b604051808881526020018781526020018615151515815260200180602001851515151581526020018481526020018360001916600019168152602001828103825286818151815260200191508051906020019080838360005b83811015610370578082015181840152602081019050610355565b50505050905090810190601f16801561039d5780820380516001836020036101000a031916815260200191505b509850505050505050505060405180910390f35b3480156103bd57600080fd5b506103f6600480360381019080803560001916906020019092919080359060200190929190803515159060200190929190505050611566565b604051808215151515815260200191505060405180910390f35b34801561041c57600080fd5b5061043f6004803603810190808035600019169060200190929190505050611b8e565b6040518080602001888152602001806020018060200180602001806020018060200187810387528e818151815260200191508051906020019080838360005b8381101561049957808201518184015260208101905061047e565b50505050905090810190601f1680156104c65780820380516001836020036101000a031916815260200191505b5087810386528c818151815260200191508051906020019080838360005b838110156104ff5780820151818401526020810190506104e4565b50505050905090810190601f16801561052c5780820380516001836020036101000a031916815260200191505b5087810385528b818151815260200191508051906020019080838360005b8381101561056557808201518184015260208101905061054a565b50505050905090810190601f1680156105925780820380516001836020036101000a031916815260200191505b5087810384528a818151815260200191508051906020019080838360005b838110156105cb5780820151818401526020810190506105b0565b50505050905090810190601f1680156105f85780820380516001836020036101000a031916815260200191505b50878103835289818151815260200191508051906020019080838360005b83811015610631578082015181840152602081019050610616565b50505050905090810190601f16801561065e5780820380516001836020036101000a031916815260200191505b50878103825288818151815260200191508051906020019080838360005b8381101561069757808201518184015260208101905061067c565b50505050905090810190601f1680156106c45780820380516001836020036101000a031916815260200191505b509d505050505050505050505050505060405180910390f35b60006060600060016000856000191660001916815260200190815260200160002060080160019054906101000a900460ff168015610743575060016000856000191660001916815260200190815260200160002060080160009054906101000a900460ff165b801561079d57506003600088866040518083815260200182600019166000191681526020019250505060405180910390206000191660001916815260200190815260200160002060070160009054906101000a900460ff16155b15610c4957600160008560001916600019168152602001908152602001600020600001601160000190805460018160011615610100020316600290046107e4929190612ca6565b5060016000856000191660001916815260200190815260200160002060020160116002019080546001816001161561010002031660029004610827929190612ca6565b506108de86864273__DateTime______________________________6392d6631390916040518263ffffffff167c01000000000000000000000000000000000000000000000000000000000281526004018082815260200191505060206040518083038186803b15801561089a57600080fd5b505af41580156108ae573d6000803e3d6000fd5b505050506040513d60208110156108c457600080fd5b810190808051906020019092919050505061ffff16612115565b601160030190805190602001906108f6929190612d2d565b506040805190810160405280601181526020017f556e69766572736964616420456166697400000000000000000000000000000081525060116004019080519060200190610945929190612d2d565b506040805190810160405280600981526020017f4d6564656c6cc3ad6e000000000000000000000000000000000000000000000081525060116005019080519060200190610994929190612d2d565b506040805190810160405280600881526020017f477261647561646f000000000000000000000000000000000000000000000000815250601160060190805190602001906109e3929190612d2d565b506001601160070160006101000a81548160ff02191690831515021790555043601160080181905550868460405180838152602001826000191660001916815260200192505050604051809103902090508060116009018160001916905550601160036000836000191660001916815260200190815260200160002060008201816000019080546001816001161561010002031660029004610a86929190612dad565b506001820154816001015560028201816002019080546001816001161561010002031660029004610ab8929190612dad565b5060038201816003019080546001816001161561010002031660029004610ae0929190612dad565b5060048201816004019080546001816001161561010002031660029004610b08929190612dad565b5060058201816005019080546001816001161561010002031660029004610b30929190612dad565b5060068201816006019080546001816001161561010002031660029004610b58929190612dad565b506007820160009054906101000a900460ff168160070160006101000a81548160ff02191690831515021790555060088201548160080155600982015481600901906000191690559050503373ffffffffffffffffffffffffffffffffffffffff167ffb9d8e8669a3f1ea3da35ce2a369515eef076a51a5a459cfa207118ce3a19363878787604051808481526020018381526020018260001916600019168152602001935050505060405180910390a2806040805190810160405280600f81526020017f507565646520677261647561727365000000000000000000000000000000000081525092509250610da1565b6003600088888860405180848152602001838152602001828152602001935050505060405180910390206000191660001916815260200190815260200160002060070160009054906101000a900460ff1615610ce65760008060010290506040805190810160405280601981526020017f596120706f73656520756e206163746120646520677261646f0000000000000081525092509250610da1565b60016000856000191660001916815260200190815260200160002060080160019054906101000a900460ff1615610d5e5760008060010290506040805190810160405280601281526020017f4e6f20707565646520677261647561727365000000000000000000000000000081525092509250610da1565b60008060010290506040805190810160405280600e81526020017f4e6f206d6174726963756c61646f000000000000000000000000000000000000815250925092505b5094509492505050565b60008082604051808281526020019150506040518091039020905060016000826000191660001916815260200190815260200160002060080160019054906101000a900460ff16158015610e1d57506002600084815260200190815260200160002060009054906101000a900460ff16155b156112e35760016002600085815260200190815260200160002060006101000a81548160ff0219169083151502179055508660046000019080519060200190610e67929190612d2d565b508560046002019080519060200190610e81929190612d2d565b50610e8b426122f4565b60046003019080519060200190610ea3929190612d2d565b508460048001819055508360046005019080519060200190610ec6929190612d2d565b50826004600601819055506000866040518082805190602001908083835b602083101515610f095780518252602082019150602081019050602083039250610ee4565b6001836020036101000a0380198251168184511680821785525050505050509050019150509081526020016040518091039020546004600701819055506001600460080160016101000a81548160ff0219169083151502179055506000600460090181905550806004600c018160001916905550600460016000836000191660001916815260200190815260200160002060008201816000019080546001816001161561010002031660029004610fc1929190612dad565b506001820154816001015560028201816002019080546001816001161561010002031660029004610ff3929190612dad565b506003820181600301908054600181600116156101000203166002900461101b929190612dad565b50600482015481600401556005820181600501908054600181600116156101000203166002900461104d929190612dad565b5060068201548160060155600782015481600701556008820160009054906101000a900460ff168160080160006101000a81548160ff0219169083151502179055506008820160019054906101000a900460ff168160080160016101000a81548160ff02191690831515021790555060098201548160090155600a820160009054906101000a900460ff1681600a0160006101000a81548160ff021916908315150217905550600b820181600b01908054600181600116156101000203166002900461111a929190612dad565b50600c82015481600c01906000191690559050503373ffffffffffffffffffffffffffffffffffffffff167f383b1f2672a2d88a7f3b92cde08dd29db664e476f4588ece7c9eea7f685a435388838989898960405180806020018760001916600019168152602001806020018681526020018060200185815260200184810384528a818151815260200191508051906020019080838360005b838110156111ce5780820151818401526020810190506111b3565b50505050905090810190601f1680156111fb5780820380516001836020036101000a031916815260200191505b50848103835288818151815260200191508051906020019080838360005b83811015611234578082015181840152602081019050611219565b50505050905090810190601f1680156112615780820380516001836020036101000a031916815260200191505b50848103825286818151815260200191508051906020019080838360005b8381101561129a57808201518184015260208101905061127f565b50505050905090810190601f1680156112c75780820380516001836020036101000a031916815260200191505b50995050505050505050505060405180910390a2809150611307565b7f307830000000000000000000000000000000000000000000000000000000000091505b5095945050505050565b60008061131d836125d7565b8015611351575060036000846000191660001916815260200190815260200160002060070160009054906101000a900460ff165b1561139d576003600084600019166000191681526020019081526020016000206008015460036000856000191660001916815260200190815260200160002060090154915091506113ae565b600080819150806001029050915091505b915091565b60008060006060600080600060016000896000191660001916815260200190815260200160002060090154600160008a6000191660001916815260200190815260200160002060070154600160008b6000191660001916815260200190815260200160002060080160009054906101000a900460ff16600160008c60001916600019168152602001908152602001600020600001600160008d60001916600019168152602001908152602001600020600a0160009054906101000a900460ff16600160008e6000191660001916815260200190815260200160002060060154600160008f60001916600019168152602001908152602001600020600c0154838054600181600116156101000203166002900480601f0160208091040260200160405190810160405280929190818152602001828054600181600116156101000203166002900480156115465780601f1061151b57610100808354040283529160200191611546565b820191906000526020600020905b81548152906001019060200180831161152957829003601f168201915b505050505093509650965096509650965096509650919395979092949650565b600080600160008660001916600019168152602001908152602001600020600901546001600087600019166000191681526020019081526020016000206007015403905060016000866000191660001916815260200190815260200160002060080160019054906101000a900460ff1680156115e857506115e7848261266a565b5b801561161d575060016000866000191660001916815260200190815260200160002060080160009054906101000a900460ff16155b15611b8157600160008660001916600019168152602001908152602001600020600b01604051808280546001816001161561010002031660029004801561169b5780601f1061167957610100808354040283529182019161169b565b820191906000526020600020905b815481529060010190602001808311611687575b505091505060405180910390206000191660405180807f7065726469646100000000000000000000000000000000000000000000000000815250600701905060405180910390206000191614156116f55760009150611b86565b600160008660001916600019168152602001908152602001600020600a0160009054906101000a900460ff1680156117ee575060405180807f4e6f2076697374610000000000000000000000000000000000000000000000008152506008019050604051809103902060001916600160008760001916600019168152602001908152602001600020600b0160405180828054600181600116156101000203166002900480156117db5780601f106117b95761010080835404028352918201916117db565b820191906000526020600020905b8154815290600101906020018083116117c7575b5050915050604051809103902060001916145b80156118195750607a6001600087600019166000191681526020019081526020016000206009015410155b15611906576012841415611894576040805190810160405280600681526020017f67616e6164610000000000000000000000000000000000000000000000000000815250600160008760001916600019168152602001908152602001600020600b01908051906020019061188e929190612d2d565b50611905565b6040805190810160405280600781526020017f7065726469646100000000000000000000000000000000000000000000000000815250600160008760001916600019168152602001908152602001600020600b0190805190602001906118fb929190612d2d565b5060009150611b86565b5b836001600087600019166000191681526020019081526020016000206009016000828254019250508190555060405180807f67616e61646100000000000000000000000000000000000000000000000000008152506006019050604051809103902060001916600160008760001916600019168152602001908152602001600020600b0160405180828054600181600116156101000203166002900480156119e55780601f106119c35761010080835404028352918201916119e5565b820191906000526020600020905b8154815290600101906020018083116119d1575b5050915050604051809103902060001916148015611a3e57506001600086600019166000191681526020019081526020016000206007015460016000876000191660001916815260200190815260200160002060090154145b15611a7a576001806000876000191660001916815260200190815260200160002060080160006101000a81548160ff0219169083151502179055505b600160008660001916600019168152602001908152602001600020600a0160009054906101000a900460ff16158015611ad2575060676001600087600019166000191681526020019081526020016000206009015410155b15611b0e5782600160008760001916600019168152602001908152602001600020600a0160006101000a81548160ff0219169083151502179055505b3373ffffffffffffffffffffffffffffffffffffffff167f7489f8110d7fb9d1b80d3a945c264e17b11f8ec802c83807ef0dff126b0fe65486868660405180846000191660001916815260200183815260200182151515158152602001935050505060405180910390a260019150611b86565b600091505b509392505050565b606060006060806060806060611ba3886125d7565b8015611bd7575060036000896000191660001916815260200190815260200160002060070160009054906101000a900460ff165b1561206a57600360008960001916600019168152602001908152602001600020600001600360008a6000191660001916815260200190815260200160002060010154600360008b60001916600019168152602001908152602001600020600201600360008c60001916600019168152602001908152602001600020600301600360008d60001916600019168152602001908152602001600020600401600360008e60001916600019168152602001908152602001600020600501600360008f60001916600019168152602001908152602001600020600601868054600181600116156101000203166002900480601f016020809104026020016040519081016040528092919081815260200182805460018160011615610100020316600290048015611d445780601f10611d1957610100808354040283529160200191611d44565b820191906000526020600020905b815481529060010190602001808311611d2757829003601f168201915b50505050509650848054600181600116156101000203166002900480601f016020809104026020016040519081016040528092919081815260200182805460018160011615610100020316600290048015611de05780601f10611db557610100808354040283529160200191611de0565b820191906000526020600020905b815481529060010190602001808311611dc357829003601f168201915b50505050509450838054600181600116156101000203166002900480601f016020809104026020016040519081016040528092919081815260200182805460018160011615610100020316600290048015611e7c5780601f10611e5157610100808354040283529160200191611e7c565b820191906000526020600020905b815481529060010190602001808311611e5f57829003601f168201915b50505050509350828054600181600116156101000203166002900480601f016020809104026020016040519081016040528092919081815260200182805460018160011615610100020316600290048015611f185780601f10611eed57610100808354040283529160200191611f18565b820191906000526020600020905b815481529060010190602001808311611efb57829003601f168201915b50505050509250818054600181600116156101000203166002900480601f016020809104026020016040519081016040528092919081815260200182805460018160011615610100020316600290048015611fb45780601f10611f8957610100808354040283529160200191611fb4565b820191906000526020600020905b815481529060010190602001808311611f9757829003601f168201915b50505050509150808054600181600116156101000203166002900480601f0160208091040260200160405190810160405280929190818152602001828054600181600116156101000203166002900480156120505780601f1061202557610100808354040283529160200191612050565b820191906000526020600020905b81548152906001019060200180831161203357829003601f168201915b50505050509050965096509650965096509650965061210a565b600060206040519081016040528060008152509080905060206040519081016040528060008152506020604051908101604052806000815250602060405190810160405280600081525060206040519081016040528060008152506040805190810160405280601481526020017f4e6f207469656e6520636572746966696361646f00000000000000000000000081525096509650965096509650965096505b919395979092949650565b606060006060806060806000945060006101908881151561213257fe5b0614156121425760019450612176565b600060048881151561215057fe5b0614801561216b5750600060648881151561216757fe5b0614155b1561217557600194505b5b60008811151561218257fe5b600c881115151561218f57fe5b60008911151561219b57fe5b60048814806121aa5750600688145b806121b55750600b88145b156121cc57601e89111515156121c757fe5b61220f565b60028814156122005784156121ed57601d89111515156121e857fe5b6121fb565b601c89111515156121fa57fe5b5b61220e565b601f891115151561220d57fe5b5b5b612218896126b1565b9350612223886126b1565b925061222e876126b1565b91506122e3826122d561227f6040805190810160405280600181526020017f2f000000000000000000000000000000000000000000000000000000000000008152508761280890919063ffffffff16565b6122c76040805190810160405280600181526020017f2f000000000000000000000000000000000000000000000000000000000000008152508961280890919063ffffffff16565b61280890919063ffffffff16565b61280890919063ffffffff16565b905080955050505050509392505050565b6060806060806123ae8573__DateTime______________________________6392d6631390916040518263ffffffff167c01000000000000000000000000000000000000000000000000000000000281526004018082815260200191505060206040518083038186803b15801561236a57600080fd5b505af415801561237e573d6000803e3d6000fd5b505050506040513d602081101561239457600080fd5b810190808051906020019092919050505061ffff166129d5565b92506124638573__DateTime______________________________63a324ad2490916040518263ffffffff167c01000000000000000000000000000000000000000000000000000000000281526004018082815260200191505060206040518083038186803b15801561242057600080fd5b505af4158015612434573d6000803e3d6000fd5b505050506040513d602081101561244a57600080fd5b810190808051906020019092919050505060ff16612b40565b91506125188573__DateTime______________________________6365c7284090916040518263ffffffff167c01000000000000000000000000000000000000000000000000000000000281526004018082815260200191505060206040518083038186803b1580156124d557600080fd5b505af41580156124e9573d6000803e3d6000fd5b505050506040513d60208110156124ff57600080fd5b810190808051906020019092919050505060ff16612b40565b90506125cd836125bf6125696040805190810160405280600181526020017f2f000000000000000000000000000000000000000000000000000000000000008152508661280890919063ffffffff16565b6125b16040805190810160405280600181526020017f2f000000000000000000000000000000000000000000000000000000000000008152508661280890919063ffffffff16565b61280890919063ffffffff16565b61280890919063ffffffff16565b9350505050919050565b6000807f01000000000000000000000000000000000000000000000000000000000000000282600060208110151561260b57fe5b1a7f0100000000000000000000000000000000000000000000000000000000000000027effffffffffffffffffffffffffffffffffffffffffffffffffffffffffffff19161415156126605760019050612665565b600090505b919050565b600080831015801561267d575060178311155b80156126895750600082135b80156126985750600083830312155b156126a657600190506126ab565b600090505b92915050565b606060008060606000808614156126ff576040805190810160405280600181526020017f300000000000000000000000000000000000000000000000000000000000000081525094506127ff565b8593505b600084141515612729578280600101935050600a8481151561272157fe5b049350612703565b826040519080825280601f01601f19166020018201604052801561275c5781602001602082028038833980820191505090505b5091506001830390505b6000861415156127fb57600a8681151561277c57fe5b066030017f0100000000000000000000000000000000000000000000000000000000000000028282806001900393508151811015156127b757fe5b9060200101907effffffffffffffffffffffffffffffffffffffffffffffffffffffffffffff1916908160001a905350600a868115156127f357fe5b049550612766565b8194505b50505050919050565b606080606080606060008088955087945084518651016040519080825280601f01601f1916602001820160405280156128505781602001602082028038833980820191505090505b509350839250600091505b855182101561290e57858281518110151561287257fe5b9060200101517f010000000000000000000000000000000000000000000000000000000000000090047f01000000000000000000000000000000000000000000000000000000000000000283828060010193508151811015156128d157fe5b9060200101907effffffffffffffffffffffffffffffffffffffffffffffffffffffffffffff1916908160001a905350818060010192505061285b565b600091505b84518210156129c657848281518110151561292a57fe5b9060200101517f010000000000000000000000000000000000000000000000000000000000000090047f010000000000000000000000000000000000000000000000000000000000000002838280600101935081518110151561298957fe5b9060200101907effffffffffffffffffffffffffffffffffffffffffffffffffffffffffffff1916908160001a9053508180600101925050612913565b82965050505050505092915050565b606060008060606000808661ffff161415612a27576040805190810160405280600181526020017f30000000000000000000000000000000000000000000000000000000000000008152509450612b37565b8561ffff1693505b600084141515612a55578280600101935050600a84811515612a4d57fe5b049350612a2f565b826040519080825280601f01601f191660200182016040528015612a885781602001602082028038833980820191505090505b5091506001830390505b60008661ffff16141515612b3357600a8661ffff16811515612ab057fe5b066030017f010000000000000000000000000000000000000000000000000000000000000002828280600190039350815181101515612aeb57fe5b9060200101907effffffffffffffffffffffffffffffffffffffffffffffffffffffffffffff1916908160001a905350600a8661ffff16811515612b2b57fe5b049550612a92565b8194505b50505050919050565b606060008060606000808660ff161415612b91576040805190810160405280600181526020017f30000000000000000000000000000000000000000000000000000000000000008152509450612c9d565b8560ff1693505b600084141515612bbe578280600101935050600a84811515612bb657fe5b049350612b98565b826040519080825280601f01601f191660200182016040528015612bf15781602001602082028038833980820191505090505b5091506001830390505b60008660ff16141515612c9957600a8660ff16811515612c1757fe5b066030017f010000000000000000000000000000000000000000000000000000000000000002828280600190039350815181101515612c5257fe5b9060200101907effffffffffffffffffffffffffffffffffffffffffffffffffffffffffffff1916908160001a905350600a8660ff16811515612c9157fe5b049550612bfb565b8194505b50505050919050565b828054600181600116156101000203166002900490600052602060002090601f016020900481019282601f10612cdf5780548555612d1c565b82800160010185558215612d1c57600052602060002091601f016020900482015b82811115612d1b578254825591600101919060010190612d00565b5b509050612d299190612e34565b5090565b828054600181600116156101000203166002900490600052602060002090601f016020900481019282601f10612d6e57805160ff1916838001178555612d9c565b82800160010185558215612d9c579182015b82811115612d9b578251825591602001919060010190612d80565b5b509050612da99190612e34565b5090565b828054600181600116156101000203166002900490600052602060002090601f016020900481019282601f10612de65780548555612e23565b82800160010185558215612e2357600052602060002091601f016020900482015b82811115612e22578254825591600101919060010190612e07565b5b509050612e309190612e34565b5090565b612e5691905b80821115612e52576000816000905550600101612e3a565b5090565b905600a165627a7a72305820e9698dff8204bcbbbc1af15eef2daf8fa3c08c5c30c0f452ceeacae97b0d4d3c0029",
  "source": "pragma solidity ^0.4.0;\n\nimport \"./Strings.sol\";\nimport \"./DateTime.sol\";\nimport \"./Dates1.sol\";\n\ncontract GenCertificate {\n    using Strings for *;\n    using Dates1 for uint;\n    using DateTime for *;\n\n   struct InfoStudent {\n    string name;\n    uint ID;\n    string degree;\n    string date;\n    uint cel;\n    string addressHome;\n    uint codeStudent;\n    uint totalApprove;\n    bool canGraduate;\n    bool isMatriculate;\n    uint nowApproved;\n    bool prepractica;\n    string estadoPractica;\n    bytes32 cod;\n    }\n\n    struct InfoCertificate {\n        string name;\n        uint ID;\n        string degree;\n        string date;\n        string university;\n        string city;\n        string state;\n        bool isGraduated;\n        uint blockNumber;\n        bytes32 hashCode;\n    }\n\n    mapping (string => uint) private numCredits;\n    mapping (bytes32 => InfoStudent) registeredStudent;\n    mapping (uint => bool) validCode;\n    event Create(\n\taddress indexed _creater,\n\tstring _name,\n  bytes32 _cod,\n\tstring _degree,\n\tuint _cel,\n\tstring _addressHome,\n\tuint _codeStudent\n    );\n\n    event Update(\n\taddress indexed _creater,\n\tbytes32 _cod,\n\tuint _approvedSemester,\n\tbool _approvedPrepractica\n    );\n    event Acta(\n\taddress indexed _creater,\n\tuint _day,\n\tuint _month,\n\tbytes32 _cod\n    );\n    mapping (bytes32 => InfoCertificate) private certificate;\n    InfoStudent infoStudent;\n    InfoCertificate infoCertificate;\n\n    constructor() public {\n        numCredits[\"Ingeniera de sistemas\"] = 164;\n        numCredits[\"Ingeniera mecnica\"] = 174;\n        numCredits[\"Finanzas\"] = 160;\n        infoStudent.canGraduate = false;\n        infoStudent.isMatriculate = false;\n        infoCertificate.isGraduated = false;\n        infoStudent.prepractica = false;\n        infoStudent.estadoPractica = \"No vista\";\n    }\n\n\n    function matriculate (string _name, string _degree, uint _cel, string _addressHome, uint _codeStudent) public returns(bytes32) {\n      bytes32 cod = keccak256(_codeStudent);\n      if (!registeredStudent[cod].isMatriculate && !validCode[_codeStudent]){\n\t    validCode[_codeStudent] = true;\n\t    infoStudent.name = _name;\n            //infoStudent.ID = _ID;\n            infoStudent.degree = _degree;\n            infoStudent.date = todayDate(block.timestamp);\n            infoStudent.cel = _cel;\n            infoStudent.addressHome = _addressHome;\n            infoStudent.codeStudent = _codeStudent;\n            infoStudent.totalApprove = numCredits[_degree];\n            //infoStudent.totalApprove = 164;\n            infoStudent.isMatriculate = true;\n            infoStudent.nowApproved = 0;\n            infoStudent.cod = cod;\n            registeredStudent[cod] = infoStudent;\n            emit Create(msg.sender, _name, cod, _degree, _cel, _addressHome, _codeStudent);\n            return cod;\n        }\n        return \"0x0\";\n    }\n\n    function todayDate (uint timeNow) private pure returns (string) {\n        string memory sYear = (timeNow.getYear()).uint2str1();\n        string memory sMonth = ((timeNow.getMonth()).uint2str2());\n        string memory sDay = ((timeNow.getDay()).uint2str2());\n\n        return ((sDay.concat(\"/\")).concat((sMonth.concat(\"/\")))).concat(sYear);\n    }\n\n    function isValid (uint _value) private pure returns (bool) {\n        uint total = 0;\n        bytes memory __value = bytes(_value.uint2str());\n        total = __value.length;\n        if(total == 12) {\n            return true;\n        }\n        return false;\n    }\n\n    function genBlock (bytes32 cod, uint approvedSemester, bool approvedPrepractica) public returns(bool){\n        int needApprove = int(registeredStudent[cod].totalApprove - registeredStudent[cod].nowApproved);\n        if (registeredStudent[cod].isMatriculate && validCredits(approvedSemester, needApprove) && !registeredStudent[cod].canGraduate) {\n            if(keccak256(\"perdida\")==keccak256(registeredStudent[cod].estadoPractica)) return false;\n            if(registeredStudent[cod].prepractica && keccak256(registeredStudent[cod].estadoPractica) == keccak256(\"No vista\") && registeredStudent[cod].nowApproved >= 122){\n                if(approvedSemester == 18){\n                    registeredStudent[cod].estadoPractica = \"ganada\";\n                }else{\n                    registeredStudent[cod].estadoPractica = \"perdida\";\n                    return false;\n                }\n            }\n\n            registeredStudent[cod].nowApproved += approvedSemester;\n\n            if(keccak256(registeredStudent[cod].estadoPractica) == keccak256(\"ganada\") && registeredStudent[cod].nowApproved ==  registeredStudent[cod].totalApprove){\n                 registeredStudent[cod].canGraduate = true;\n            }\n\n            if(!registeredStudent[cod].prepractica && registeredStudent[cod].nowApproved >= 103){\n                registeredStudent[cod].prepractica = approvedPrepractica;\n            }\n\n            emit Update(msg.sender, cod, approvedSemester, approvedPrepractica);\n            return true;\n        }\n        return false;\n    }\n\n    function getBlock(bytes32 cod) constant returns(uint,uint,bool,string,bool,uint,bytes32){\n        return (registeredStudent[cod].nowApproved,registeredStudent[cod].totalApprove,registeredStudent[cod].canGraduate,registeredStudent[cod].name,registeredStudent[cod].prepractica,registeredStudent[cod].codeStudent,registeredStudent[cod].cod);\n    }\n\n    function genActa (uint _codeStudent, uint day, uint month, bytes32 cod) public returns (bytes32, string) {\n        if (registeredStudent[cod].isMatriculate && registeredStudent[cod].canGraduate && !certificate[keccak256(_codeStudent,cod)].isGraduated) {\n\n            infoCertificate.name = registeredStudent[cod].name;\n            //infoCertificate.ID = registeredStudent[cod].ID;\n            infoCertificate.degree = registeredStudent[cod].degree;\n            infoCertificate.date = Dates1.date(day, month, uint(block.timestamp.getYear()));\n            infoCertificate.university = \"Universidad Eafit\";\n            infoCertificate.city = \"Medelln\";\n            infoCertificate.state = \"Graduado\";\n            infoCertificate.isGraduated = true;\n            infoCertificate.blockNumber = block.number;\n            bytes32 _hashCode = keccak256(_codeStudent,cod);\n            infoCertificate.hashCode = _hashCode;\n            certificate[_hashCode] = infoCertificate;\n            emit Acta(msg.sender, day, month, cod);\n            return (_hashCode, \"Puede graduarse\");\n        }\n        if(certificate[keccak256(_codeStudent,day,month)].isGraduated) {\n            return (0x0, \"Ya posee un acta de grado\");\n        }\n        if (registeredStudent[cod].isMatriculate) {\n             return (0x0, \"No puede graduarse\");\n        }\n        return (0x0, \"No matriculado\");\n    }\n\n    function validCredits (uint approvedSemester, int needApprove) private pure returns (bool) {\n        if ((approvedSemester >= 0 && approvedSemester <= 23 && needApprove > 0 && needApprove - int(approvedSemester) >= 0)) {\n            return true;\n        }\n        return false;\n    }\n\n   function getCertificate (bytes32 _hashCode) public view returns (string _name, uint _ID, string _degree, string _date, string _university, string _city, string _state) {\n       if (validHash(_hashCode) && certificate[_hashCode].isGraduated) {\n           return (certificate[_hashCode].name,\n                    certificate[_hashCode].ID,\n                    certificate[_hashCode].degree,\n                    certificate[_hashCode].date,\n                    certificate[_hashCode].university,\n                    certificate[_hashCode].city,\n                    certificate[_hashCode].state);\n                    getCertificateBlock(_hashCode);\n       }\n       return (\"\",0,\"\",\"\",\"\",\"\",\"No tiene certificado\");\n   }\n\n   function getCertificateBlock (bytes32 _hashCode) public view returns (uint blockNumber, bytes32 __hashCode){\n        if (validHash(_hashCode) && certificate[_hashCode].isGraduated) {\n            return (certificate[_hashCode].blockNumber,\n                    certificate[_hashCode].hashCode);\n        }\n        return (0, 0x0);\n   }\n\n   function validHash (bytes32 hashCode) private pure returns (bool) {\n       if (hashCode[0] != 0) {\n           return true;\n       }\n       return false;\n   }\n\n}\n",
  "sourcePath": "/Users/josesanchez/OneDrive - Universidad EAFIT/Semestre_7/PI2/project/ramaConnetionRinkenby/BcCertificate/contracts/GenCertificate.sol",
  "compiler": {
    "name": "solc",
    "version": "0.4.23+commit.124ca40d.Emscripten.clang"
  },
  "schemaVersion": "2.0.0",
  "updatedAt": "2018-05-21T22:39:41.470Z"
}